{
  "abi": [
    {
      "inputs": [
        {
          "internalType": "address",
          "name": "_owner",
          "type": "address"
        }
      ],
      "stateMutability": "nonpayable",
      "type": "constructor"
    },
    {
      "inputs": [],
      "name": "InvalidParams",
      "type": "error"
    },
    {
      "inputs": [],
      "name": "Unauthorized",
      "type": "error"
    },
    {
      "anonymous": false,
      "inputs": [
        {
          "indexed": true,
          "internalType": "address",
          "name": "owner",
          "type": "address"
        },
        {
          "indexed": true,
          "internalType": "address",
          "name": "spender",
          "type": "address"
        },
        {
          "indexed": false,
          "internalType": "uint256",
          "name": "amount",
          "type": "uint256"
        }
      ],
      "name": "Approval",
      "type": "event"
    },
    {
      "anonymous": false,
      "inputs": [
        {
          "indexed": true,
          "internalType": "address",
          "name": "from",
          "type": "address"
        },
        {
          "indexed": true,
          "internalType": "address",
          "name": "to",
          "type": "address"
        },
        {
          "indexed": false,
          "internalType": "uint256",
          "name": "amount",
          "type": "uint256"
        }
      ],
      "name": "Transfer",
      "type": "event"
    },
    {
      "inputs": [],
      "name": "DOMAIN_SEPARATOR",
      "outputs": [
        {
          "internalType": "bytes32",
          "name": "",
          "type": "bytes32"
        }
      ],
      "stateMutability": "view",
      "type": "function"
    },
    {
      "inputs": [],
      "name": "acceptOwnership",
      "outputs": [],
      "stateMutability": "nonpayable",
      "type": "function"
    },
    {
      "inputs": [
        {
          "internalType": "address",
          "name": "",
          "type": "address"
        },
        {
          "internalType": "address",
          "name": "",
          "type": "address"
        }
      ],
      "name": "allowance",
      "outputs": [
        {
          "internalType": "uint256",
          "name": "",
          "type": "uint256"
        }
      ],
      "stateMutability": "view",
      "type": "function"
    },
    {
      "inputs": [
        {
          "internalType": "address",
          "name": "spender",
          "type": "address"
        },
        {
          "internalType": "uint256",
          "name": "amount",
          "type": "uint256"
        }
      ],
      "name": "approve",
      "outputs": [
        {
          "internalType": "bool",
          "name": "",
          "type": "bool"
        }
      ],
      "stateMutability": "nonpayable",
      "type": "function"
    },
    {
      "inputs": [
        {
          "internalType": "address",
          "name": "",
          "type": "address"
        }
      ],
      "name": "balanceOf",
      "outputs": [
        {
          "internalType": "uint256",
          "name": "",
          "type": "uint256"
        }
      ],
      "stateMutability": "view",
      "type": "function"
    },
    {
      "inputs": [
        {
          "internalType": "address",
          "name": "account",
          "type": "address"
        },
        {
          "internalType": "uint256",
          "name": "_amount",
          "type": "uint256"
        }
      ],
      "name": "burn",
      "outputs": [
        {
          "internalType": "bool",
          "name": "",
          "type": "bool"
        }
      ],
      "stateMutability": "nonpayable",
      "type": "function"
    },
    {
      "inputs": [],
      "name": "burner",
      "outputs": [
        {
          "internalType": "address",
          "name": "",
          "type": "address"
        }
      ],
      "stateMutability": "view",
      "type": "function"
    },
    {
      "inputs": [],
      "name": "decimals",
      "outputs": [
        {
          "internalType": "uint8",
          "name": "",
          "type": "uint8"
        }
      ],
      "stateMutability": "view",
      "type": "function"
    },
    {
      "inputs": [
        {
          "internalType": "address",
          "name": "account",
          "type": "address"
        },
        {
          "internalType": "uint256",
          "name": "_amount",
          "type": "uint256"
        }
      ],
      "name": "mint",
      "outputs": [
        {
          "internalType": "bool",
          "name": "",
          "type": "bool"
        }
      ],
      "stateMutability": "nonpayable",
      "type": "function"
    },
    {
      "inputs": [],
      "name": "minter",
      "outputs": [
        {
          "internalType": "address",
          "name": "",
          "type": "address"
        }
      ],
      "stateMutability": "view",
      "type": "function"
    },
    {
      "inputs": [],
      "name": "name",
      "outputs": [
        {
          "internalType": "string",
          "name": "",
          "type": "string"
        }
      ],
      "stateMutability": "view",
      "type": "function"
    },
    {
      "inputs": [
        {
          "internalType": "address",
          "name": "",
          "type": "address"
        }
      ],
      "name": "nonces",
      "outputs": [
        {
          "internalType": "uint256",
          "name": "",
          "type": "uint256"
        }
      ],
      "stateMutability": "view",
      "type": "function"
    },
    {
      "inputs": [],
      "name": "owner",
      "outputs": [
        {
          "internalType": "address",
          "name": "",
          "type": "address"
        }
      ],
      "stateMutability": "view",
      "type": "function"
    },
    {
      "inputs": [],
      "name": "pendingOwner",
      "outputs": [
        {
          "internalType": "address",
          "name": "",
          "type": "address"
        }
      ],
      "stateMutability": "view",
      "type": "function"
    },
    {
      "inputs": [
        {
          "internalType": "address",
          "name": "owner",
          "type": "address"
        },
        {
          "internalType": "address",
          "name": "spender",
          "type": "address"
        },
        {
          "internalType": "uint256",
          "name": "value",
          "type": "uint256"
        },
        {
          "internalType": "uint256",
          "name": "deadline",
          "type": "uint256"
        },
        {
          "internalType": "uint8",
          "name": "v",
          "type": "uint8"
        },
        {
          "internalType": "bytes32",
          "name": "r",
          "type": "bytes32"
        },
        {
          "internalType": "bytes32",
          "name": "s",
          "type": "bytes32"
        }
      ],
      "name": "permit",
      "outputs": [],
      "stateMutability": "nonpayable",
      "type": "function"
    },
    {
      "inputs": [
        {
          "internalType": "address",
          "name": "_burner",
          "type": "address"
        }
      ],
      "name": "setBurner",
      "outputs": [],
      "stateMutability": "nonpayable",
      "type": "function"
    },
    {
      "inputs": [
        {
          "internalType": "address",
          "name": "_minter",
          "type": "address"
        }
      ],
      "name": "setMinter",
      "outputs": [],
      "stateMutability": "nonpayable",
      "type": "function"
    },
    {
      "inputs": [],
      "name": "symbol",
      "outputs": [
        {
          "internalType": "string",
          "name": "",
          "type": "string"
        }
      ],
      "stateMutability": "view",
      "type": "function"
    },
    {
      "inputs": [],
      "name": "totalSupply",
      "outputs": [
        {
          "internalType": "uint256",
          "name": "",
          "type": "uint256"
        }
      ],
      "stateMutability": "view",
      "type": "function"
    },
    {
      "inputs": [
        {
          "internalType": "address",
          "name": "to",
          "type": "address"
        },
        {
          "internalType": "uint256",
          "name": "amount",
          "type": "uint256"
        }
      ],
      "name": "transfer",
      "outputs": [
        {
          "internalType": "bool",
          "name": "",
          "type": "bool"
        }
      ],
      "stateMutability": "nonpayable",
      "type": "function"
    },
    {
      "inputs": [
        {
          "internalType": "address",
          "name": "from",
          "type": "address"
        },
        {
          "internalType": "address",
          "name": "to",
          "type": "address"
        },
        {
          "internalType": "uint256",
          "name": "amount",
          "type": "uint256"
        }
      ],
      "name": "transferFrom",
      "outputs": [
        {
          "internalType": "bool",
          "name": "",
          "type": "bool"
        }
      ],
      "stateMutability": "nonpayable",
      "type": "function"
    },
    {
      "inputs": [
        {
          "internalType": "address",
          "name": "newOwner",
          "type": "address"
        }
      ],
      "name": "transferOwnership",
      "outputs": [],
      "stateMutability": "nonpayable",
      "type": "function"
    }
  ],
  "bytecode": {
    "object": "0x60e06040523480156200001157600080fd5b506040516200127b3803806200127b833981016040819052620000349162000218565b806040518060400160405280601881526020017f496e66696e69747920506f6f6c205374616b65642046494c0000000000000000815250604051806040016040528060048152602001631a51925360e21b815250601282600090816200009b9190620002ef565b506001620000aa8382620002ef565b5060ff81166080524660a052620000c062000126565b60c08181525050505050620000e9816001600160a01b0316620001c260201b6200098c1760201c565b90506001600160a01b0381166200011357604051635435b28960e11b815260040160405180910390fd5b6200011e81620001c5565b505062000439565b60007f8b73c3c69bb8fe3d512ecc4cf759cc79239f7b179b0ffacaa9a75d522b39400f60006040516200015a9190620003bb565b6040805191829003822060208301939093528101919091527fc89efdaa54c0f20c7adf612882df0950f5a951637e0307cdcb4c672f298b8bc660608201524660808201523060a082015260c00160405160208183030381529060405280519060200120905090565b90565b600780546001600160a01b0319169055620001f56001600160a01b038216620001c2602090811b6200098c17901c565b600680546001600160a01b0319166001600160a01b039290921691909117905550565b6000602082840312156200022b57600080fd5b81516001600160a01b03811681146200024357600080fd5b9392505050565b634e487b7160e01b600052604160045260246000fd5b600181811c908216806200027557607f821691505b6020821081036200029657634e487b7160e01b600052602260045260246000fd5b50919050565b601f821115620002ea57600081815260208120601f850160051c81016020861015620002c55750805b601f850160051c820191505b81811015620002e657828155600101620002d1565b5050505b505050565b81516001600160401b038111156200030b576200030b6200024a565b62000323816200031c845462000260565b846200029c565b602080601f8311600181146200035b5760008415620003425750858301515b600019600386901b1c1916600185901b178555620002e6565b600085815260208120601f198616915b828110156200038c578886015182559484019460019091019084016200036b565b5085821015620003ab5787850151600019600388901b60f8161c191681555b5050505050600190811b01905550565b6000808354620003cb8162000260565b60018281168015620003e65760018114620003fc576200042d565b60ff19841687528215158302870194506200042d565b8760005260208060002060005b85811015620004245781548a82015290840190820162000409565b50505082870194505b50929695505050505050565b60805160a05160c051610e1262000469600039600061056d01526000610538015260006101f50152610e126000f3fe608060405234801561001057600080fd5b50600436106101425760003560e01c80637ecebe00116100b8578063a996d6ce1161007c578063a996d6ce146102cf578063d505accf146102e2578063dd62ed3e146102f5578063e30c397814610320578063f2fde38b14610333578063fca3b5aa1461034657600080fd5b80637ecebe001461026e5780638da5cb5b1461028e57806395d89b41146102a15780639dc29fac146102a9578063a9059cbb146102bc57600080fd5b806327810b6e1161010a57806327810b6e146101dd578063313ce567146101f05780633644e5151461022957806340c10f191461023157806370a082311461024457806379ba50971461026457600080fd5b806306fdde03146101475780630754617214610165578063095ea7b31461019057806318160ddd146101b357806323b872dd146101ca575b600080fd5b61014f610359565b60405161015c9190610b0f565b60405180910390f35b600854610178906001600160a01b031681565b6040516001600160a01b03909116815260200161015c565b6101a361019e366004610b79565b6103e7565b604051901515815260200161015c565b6101bc60025481565b60405190815260200161015c565b6101a36101d8366004610ba3565b610454565b600954610178906001600160a01b031681565b6102177f000000000000000000000000000000000000000000000000000000000000000081565b60405160ff909116815260200161015c565b6101bc610534565b6101a361023f366004610b79565b61058f565b6101bc610252366004610bdf565b60036020526000908152604090205481565b61026c6105cf565b005b6101bc61027c366004610bdf565b60056020526000908152604090205481565b600654610178906001600160a01b031681565b61014f61061b565b6101a36102b7366004610b79565b610628565b6101a36102ca366004610b79565b61065f565b61026c6102dd366004610bdf565b6106c5565b61026c6102f0366004610c01565b6106ef565b6101bc610303366004610c74565b600460209081526000928352604080842090915290825290205481565b600754610178906001600160a01b031681565b61026c610341366004610bdf565b610938565b61026c610354366004610bdf565b610962565b6000805461036690610ca7565b80601f016020809104026020016040519081016040528092919081815260200182805461039290610ca7565b80156103df5780601f106103b4576101008083540402835291602001916103df565b820191906000526020600020905b8154815290600101906020018083116103c257829003601f168201915b505050505081565b3360008181526004602090815260408083206001600160a01b038716808552925280832085905551919290917f8c5be1e5ebec7d5bd14f71427d1e84f3dd0314c0f7b2291e5b200ac8c7c3b925906104429086815260200190565b60405180910390a35060015b92915050565b6001600160a01b038316600090815260046020908152604080832033845290915281205460001981146104b05761048b8382610cf7565b6001600160a01b03861660009081526004602090815260408083203384529091529020555b6001600160a01b038516600090815260036020526040812080548592906104d8908490610cf7565b90915550506001600160a01b0380851660008181526003602052604090819020805487019055519091871690600080516020610dbd833981519152906105219087815260200190565b60405180910390a3506001949350505050565b60007f0000000000000000000000000000000000000000000000000000000000000000461461056a5761056561098f565b905090565b507f000000000000000000000000000000000000000000000000000000000000000090565b6008546000906001600160a01b031633146105bc576040516282b42960e81b815260040160405180910390fd5b6105c68383610a29565b50600192915050565b6007546001600160a01b031633146105f9576040516282b42960e81b815260040160405180910390fd5b600780546001600160a01b03199081169091556006805490911633179055565b565b6001805461036690610ca7565b6009546000906001600160a01b03163314610655576040516282b42960e81b815260040160405180910390fd5b6105c68383610a83565b33600090815260036020526040812080548391908390610680908490610cf7565b90915550506001600160a01b03831660008181526003602052604090819020805485019055513390600080516020610dbd833981519152906104429086815260200190565b6106cd610ae5565b600980546001600160a01b0319166001600160a01b0392909216919091179055565b428410156107445760405162461bcd60e51b815260206004820152601760248201527f5045524d49545f444541444c494e455f4558504952454400000000000000000060448201526064015b60405180910390fd5b60006001610750610534565b6001600160a01b038a811660008181526005602090815260409182902080546001810190915582517f6e71edae12b1b97f4d1f60370fef10105fa2faae0126114a169c64845d6126c98184015280840194909452938d166060840152608083018c905260a083019390935260c08083018b90528151808403909101815260e08301909152805192019190912061190160f01b6101008301526101028201929092526101228101919091526101420160408051601f198184030181528282528051602091820120600084529083018083525260ff871690820152606081018590526080810184905260a0016020604051602081039080840390855afa15801561085c573d6000803e3d6000fd5b5050604051601f1901519150506001600160a01b038116158015906108925750876001600160a01b0316816001600160a01b0316145b6108cf5760405162461bcd60e51b815260206004820152600e60248201526d24a72b20a624a22fa9a4a3a722a960911b604482015260640161073b565b6001600160a01b0390811660009081526004602090815260408083208a8516808552908352928190208990555188815291928a16917f8c5be1e5ebec7d5bd14f71427d1e84f3dd0314c0f7b2291e5b200ac8c7c3b925910160405180910390a350505050505050565b610940610ae5565b600780546001600160a01b0319166001600160a01b0392909216919091179055565b61096a610ae5565b600880546001600160a01b0319166001600160a01b0392909216919091179055565b90565b60007f8b73c3c69bb8fe3d512ecc4cf759cc79239f7b179b0ffacaa9a75d522b39400f60006040516109c19190610d0a565b6040805191829003822060208301939093528101919091527fc89efdaa54c0f20c7adf612882df0950f5a951637e0307cdcb4c672f298b8bc660608201524660808201523060a082015260c00160405160208183030381529060405280519060200120905090565b8060026000828254610a3b9190610da9565b90915550506001600160a01b038216600081815260036020908152604080832080548601905551848152600080516020610dbd83398151915291015b60405180910390a35050565b6001600160a01b03821660009081526003602052604081208054839290610aab908490610cf7565b90915550506002805482900390556040518181526000906001600160a01b03841690600080516020610dbd83398151915290602001610a77565b6006546001600160a01b03163314610619576040516282b42960e81b815260040160405180910390fd5b600060208083528351808285015260005b81811015610b3c57858101830151858201604001528201610b20565b506000604082860101526040601f19601f8301168501019250505092915050565b80356001600160a01b0381168114610b7457600080fd5b919050565b60008060408385031215610b8c57600080fd5b610b9583610b5d565b946020939093013593505050565b600080600060608486031215610bb857600080fd5b610bc184610b5d565b9250610bcf60208501610b5d565b9150604084013590509250925092565b600060208284031215610bf157600080fd5b610bfa82610b5d565b9392505050565b600080600080600080600060e0888a031215610c1c57600080fd5b610c2588610b5d565b9650610c3360208901610b5d565b95506040880135945060608801359350608088013560ff81168114610c5757600080fd5b9699959850939692959460a0840135945060c09093013592915050565b60008060408385031215610c8757600080fd5b610c9083610b5d565b9150610c9e60208401610b5d565b90509250929050565b600181811c90821680610cbb57607f821691505b602082108103610cdb57634e487b7160e01b600052602260045260246000fd5b50919050565b634e487b7160e01b600052601160045260246000fd5b8181038181111561044e5761044e610ce1565b600080835481600182811c915080831680610d2657607f831692505b60208084108203610d4557634e487b7160e01b86526022600452602486fd5b818015610d595760018114610d6e57610d9b565b60ff1986168952841515850289019650610d9b565b60008a81526020902060005b86811015610d935781548b820152908501908301610d7a565b505084890196505b509498975050505050505050565b8082018082111561044e5761044e610ce156feddf252ad1be2c89b69c2b068fc378daa952ba7f163c4a11628f55a4df523b3efa26469706673582212205ac1862e377c2072b837eb6520e7527f034e4768ecd3c515bc4930bce40cb72b64736f6c63430008110033",
    "linkReferences": {}
  },
  "methodIdentifiers": {
    "DOMAIN_SEPARATOR()": "3644e515",
    "acceptOwnership()": "79ba5097",
    "allowance(address,address)": "dd62ed3e",
    "approve(address,uint256)": "095ea7b3",
    "balanceOf(address)": "70a08231",
    "burn(address,uint256)": "9dc29fac",
    "burner()": "27810b6e",
    "decimals()": "313ce567",
    "mint(address,uint256)": "40c10f19",
    "minter()": "07546172",
    "name()": "06fdde03",
    "nonces(address)": "7ecebe00",
    "owner()": "8da5cb5b",
    "pendingOwner()": "e30c3978",
    "permit(address,address,uint256,uint256,uint8,bytes32,bytes32)": "d505accf",
    "setBurner(address)": "a996d6ce",
    "setMinter(address)": "fca3b5aa",
    "symbol()": "95d89b41",
    "totalSupply()": "18160ddd",
    "transfer(address,uint256)": "a9059cbb",
    "transferFrom(address,address,uint256)": "23b872dd",
    "transferOwnership(address)": "f2fde38b"
  },
  "id": 25
}